{
  "contractName": "Donation",
  "abi": [
    {
      "constant": true,
      "inputs": [],
      "name": "donationCount",
      "outputs": [
        {
          "name": "",
          "type": "uint256"
        }
      ],
      "payable": false,
      "stateMutability": "view",
      "type": "function",
      "signature": "0x2abfab4d"
    },
    {
      "constant": true,
      "inputs": [
        {
          "name": "",
          "type": "address"
        },
        {
          "name": "",
          "type": "uint256"
        }
      ],
      "name": "donateurToDonations",
      "outputs": [
        {
          "name": "",
          "type": "uint256"
        }
      ],
      "payable": false,
      "stateMutability": "view",
      "type": "function",
      "signature": "0x5a0dbc78"
    },
    {
      "constant": true,
      "inputs": [
        {
          "name": "",
          "type": "uint256"
        }
      ],
      "name": "donations",
      "outputs": [
        {
          "name": "id",
          "type": "uint256"
        },
        {
          "name": "donateur",
          "type": "address"
        },
        {
          "name": "montant",
          "type": "uint256"
        },
        {
          "name": "timestamp",
          "type": "uint256"
        }
      ],
      "payable": false,
      "stateMutability": "view",
      "type": "function",
      "signature": "0xf8626af8"
    },
    {
      "anonymous": false,
      "inputs": [
        {
          "indexed": false,
          "name": "id",
          "type": "uint256"
        },
        {
          "indexed": false,
          "name": "donateur",
          "type": "address"
        },
        {
          "indexed": false,
          "name": "montant",
          "type": "uint256"
        },
        {
          "indexed": false,
          "name": "timestamp",
          "type": "uint256"
        }
      ],
      "name": "DonationCreated",
      "type": "event",
      "signature": "0x6389d52932f001f805bda3695335e2ce2064320790f711cffd61bf0805131ce7"
    },
    {
      "constant": false,
      "inputs": [],
      "name": "createDonation",
      "outputs": [],
      "payable": true,
      "stateMutability": "payable",
      "type": "function",
      "signature": "0x08196a9e"
    },
    {
      "constant": true,
      "inputs": [
        {
          "name": "_donateur",
          "type": "address"
        }
      ],
      "name": "getDonationsByDonateur",
      "outputs": [
        {
          "name": "",
          "type": "uint256[]"
        }
      ],
      "payable": false,
      "stateMutability": "view",
      "type": "function",
      "signature": "0x88c656ab"
    },
    {
      "constant": true,
      "inputs": [
        {
          "name": "_id",
          "type": "uint256"
        }
      ],
      "name": "getDonationDetails",
      "outputs": [
        {
          "components": [
            {
              "name": "id",
              "type": "uint256"
            },
            {
              "name": "donateur",
              "type": "address"
            },
            {
              "name": "montant",
              "type": "uint256"
            },
            {
              "name": "timestamp",
              "type": "uint256"
            }
          ],
          "name": "",
          "type": "tuple"
        }
      ],
      "payable": false,
      "stateMutability": "view",
      "type": "function",
      "signature": "0xeb564d35"
    }
  ],
  "bytecode": "0x60806040526000805534801561001457600080fd5b5061093e806100246000396000f3fe608060405260043610610078576000357c0100000000000000000000000000000000000000000000000000000000900463ffffffff16806308196a9e1461007d5780632abfab4d146100875780635a0dbc78146100b257806388c656ab146100ef578063eb564d351461012c578063f8626af814610169575b600080fd5b6100856101a9565b005b34801561009357600080fd5b5061009c610361565b6040516100a991906107ac565b60405180910390f35b3480156100be57600080fd5b506100d960048036036100d491908101906105b0565b610367565b6040516100e691906107ac565b60405180910390f35b3480156100fb57600080fd5b5061011660048036036101119190810190610587565b610397565b604051610123919061074f565b60405180910390f35b34801561013857600080fd5b50610153600480360361014e91908101906105ec565b61042e565b6040516101609190610791565b60405180910390f35b34801561017557600080fd5b50610190600480360361018b91908101906105ec565b6104d0565b6040516101a0949392919061080c565b60405180910390f35b6000341115156101ee576040517f08c379a00000000000000000000000000000000000000000000000000000000081526004016101e590610771565b60405180910390fd5b600080815480929190600101919050555060806040519081016040528060005481526020013373ffffffffffffffffffffffffffffffffffffffff1681526020013481526020014281525060016000805481526020019081526020016000206000820151816000015560208201518160010160006101000a81548173ffffffffffffffffffffffffffffffffffffffff021916908373ffffffffffffffffffffffffffffffffffffffff1602179055506040820151816002015560608201518160030155905050600260003373ffffffffffffffffffffffffffffffffffffffff1673ffffffffffffffffffffffffffffffffffffffff16815260200190815260200160002060005490806001815401808255809150509060018203906000526020600020016000909192909190915055507f6389d52932f001f805bda3695335e2ce2064320790f711cffd61bf0805131ce760005433344260405161035794939291906107c7565b60405180910390a1565b60005481565b60026020528160005260406000208181548110151561038257fe5b90600052602060002001600091509150505481565b6060600260008373ffffffffffffffffffffffffffffffffffffffff1673ffffffffffffffffffffffffffffffffffffffff16815260200190815260200160002080548060200260200160405190810160405280929190818152602001828054801561042257602002820191906000526020600020905b81548152602001906001019080831161040e575b50505050509050919050565b610436610520565b6001600083815260200190815260200160002060806040519081016040529081600082015481526020016001820160009054906101000a900473ffffffffffffffffffffffffffffffffffffffff1673ffffffffffffffffffffffffffffffffffffffff1673ffffffffffffffffffffffffffffffffffffffff168152602001600282015481526020016003820154815250509050919050565b60016020528060005260406000206000915090508060000154908060010160009054906101000a900473ffffffffffffffffffffffffffffffffffffffff16908060020154908060030154905084565b60806040519081016040528060008152602001600073ffffffffffffffffffffffffffffffffffffffff16815260200160008152602001600081525090565b600061056b82356108b2565b905092915050565b600061057f82356108c4565b905092915050565b60006020828403121561059957600080fd5b60006105a78482850161055f565b91505092915050565b600080604083850312156105c357600080fd5b60006105d18582860161055f565b92505060206105e285828601610573565b9150509250929050565b6000602082840312156105fe57600080fd5b600061060c84828501610573565b91505092915050565b61061e816108ce565b82525050565b61062d81610876565b82525050565b600061063e8261085e565b80845260208401935061065083610851565b60005b8281101561068257610666868351610740565b61066f82610869565b9150602086019550600181019050610653565b50849250505092915050565b6000603982527f4c65206d6f6e74616e74206465206c6120646f6e6174696f6e20646f697420c360208301527faa74726520737570c3a9726965757220c3a0207ac3a9726f2e000000000000006040830152606082019050919050565b6080820160008201516107016000850182610740565b5060208201516107146020850182610624565b5060408201516107276040850182610740565b50606082015161073a6060850182610740565b50505050565b610749816108a8565b82525050565b600060208201905081810360008301526107698184610633565b905092915050565b6000602082019050818103600083015261078a8161068e565b9050919050565b60006080820190506107a660008301846106eb565b92915050565b60006020820190506107c16000830184610740565b92915050565b60006080820190506107dc6000830187610740565b6107e96020830186610615565b6107f66040830185610740565b6108036060830184610740565b95945050505050565b60006080820190506108216000830187610740565b61082e6020830186610624565b61083b6040830185610740565b6108486060830184610740565b95945050505050565b6000602082019050919050565b600081519050919050565b6000602082019050919050565b600061088182610888565b9050919050565b600073ffffffffffffffffffffffffffffffffffffffff82169050919050565b6000819050919050565b60006108bd82610888565b9050919050565b6000819050919050565b60006108d9826108e0565b9050919050565b60006108eb826108f2565b9050919050565b60006108fd82610888565b905091905056fea265627a7a7230582085bf06cb23f9acf935a22967326a24fe9503be5d8adab68f517f37b2f682f4786c6578706572696d656e74616cf50037",
  "source": "// contracts/Donation.sol\r\n// SPDX-License-Identifier: MIT\r\npragma solidity ^0.5.0;\r\npragma experimental ABIEncoderV2;\r\n\r\ncontract Donation {\r\n    struct DonationStruct {\r\n        uint id;\r\n        address donateur;\r\n        uint montant;\r\n        uint timestamp;\r\n    }\r\n\r\n    uint public donationCount = 0;\r\n    mapping(uint => DonationStruct) public donations;\r\n    mapping(address => uint[]) public donateurToDonations;\r\n\r\n    event DonationCreated(uint id, address donateur, uint montant, uint timestamp);\r\n\r\n    function createDonation() external payable {\r\n        require(msg.value > 0, \"Le montant de la donation doit être supérieur à zéro.\");\r\n\r\n        donationCount++;\r\n        donations[donationCount] = DonationStruct(donationCount, msg.sender, msg.value, block.timestamp);\r\n        donateurToDonations[msg.sender].push(donationCount);\r\n\r\n        emit DonationCreated(donationCount, msg.sender, msg.value, block.timestamp);\r\n    }\r\n\r\n    function getDonationsByDonateur(address _donateur) external view returns (uint[] memory) {\r\n        return donateurToDonations[_donateur];\r\n    }\r\n\r\n    function getDonationDetails(uint _id) external view returns (DonationStruct memory) {\r\n        return donations[_id];\r\n    }\r\n}\r\n",
  "sourcePath": "D:/ESTIAM/blockchain/donation-app/contracts/Donation.sol",
  "compiler": {
    "name": "solc",
    "version": "0.5.0+commit.1d4f565a.Emscripten.clang"
  },
  "schemaVersion": "3.0.1",
  "updatedAt": "2024-07-04T11:23:08.581Z",
  "devdoc": {
    "methods": {}
  },
  "userdoc": {
    "methods": {}
  }
}